{
  "contractName": "Token",
  "abi": [
    {
      "constant": true,
      "inputs": [],
      "name": "_receiver",
      "outputs": [
        {
          "name": "",
          "type": "address"
        }
      ],
      "payable": false,
      "stateMutability": "view",
      "type": "function"
    },
    {
      "constant": true,
      "inputs": [],
      "name": "name",
      "outputs": [
        {
          "name": "",
          "type": "string"
        }
      ],
      "payable": false,
      "stateMutability": "view",
      "type": "function"
    },
    {
      "constant": true,
      "inputs": [],
      "name": "totalSupply",
      "outputs": [
        {
          "name": "",
          "type": "uint256"
        }
      ],
      "payable": false,
      "stateMutability": "view",
      "type": "function"
    },
    {
      "constant": true,
      "inputs": [],
      "name": "amountReward",
      "outputs": [
        {
          "name": "",
          "type": "uint256"
        }
      ],
      "payable": false,
      "stateMutability": "view",
      "type": "function"
    },
    {
      "constant": true,
      "inputs": [],
      "name": "decimals",
      "outputs": [
        {
          "name": "",
          "type": "uint8"
        }
      ],
      "payable": false,
      "stateMutability": "view",
      "type": "function"
    },
    {
      "constant": false,
      "inputs": [
        {
          "name": "spender",
          "type": "address"
        },
        {
          "name": "addedValue",
          "type": "uint256"
        }
      ],
      "name": "increaseAllowance",
      "outputs": [
        {
          "name": "",
          "type": "bool"
        }
      ],
      "payable": false,
      "stateMutability": "nonpayable",
      "type": "function"
    },
    {
      "constant": true,
      "inputs": [],
      "name": "threshold",
      "outputs": [
        {
          "name": "",
          "type": "uint256"
        }
      ],
      "payable": false,
      "stateMutability": "view",
      "type": "function"
    },
    {
      "constant": true,
      "inputs": [],
      "name": "rewardSupply",
      "outputs": [
        {
          "name": "",
          "type": "uint256"
        }
      ],
      "payable": false,
      "stateMutability": "view",
      "type": "function"
    },
    {
      "constant": true,
      "inputs": [
        {
          "name": "owner",
          "type": "address"
        }
      ],
      "name": "balanceOf",
      "outputs": [
        {
          "name": "",
          "type": "uint256"
        }
      ],
      "payable": false,
      "stateMutability": "view",
      "type": "function"
    },
    {
      "constant": true,
      "inputs": [],
      "name": "currentSupply",
      "outputs": [
        {
          "name": "",
          "type": "uint256"
        }
      ],
      "payable": false,
      "stateMutability": "view",
      "type": "function"
    },
    {
      "constant": true,
      "inputs": [],
      "name": "halfLife",
      "outputs": [
        {
          "name": "",
          "type": "uint256"
        }
      ],
      "payable": false,
      "stateMutability": "view",
      "type": "function"
    },
    {
      "constant": true,
      "inputs": [],
      "name": "symbol",
      "outputs": [
        {
          "name": "",
          "type": "string"
        }
      ],
      "payable": false,
      "stateMutability": "view",
      "type": "function"
    },
    {
      "constant": true,
      "inputs": [],
      "name": "lastMintBlock",
      "outputs": [
        {
          "name": "",
          "type": "uint256"
        }
      ],
      "payable": false,
      "stateMutability": "view",
      "type": "function"
    },
    {
      "constant": false,
      "inputs": [
        {
          "name": "spender",
          "type": "address"
        },
        {
          "name": "subtractedValue",
          "type": "uint256"
        }
      ],
      "name": "decreaseAllowance",
      "outputs": [
        {
          "name": "",
          "type": "bool"
        }
      ],
      "payable": false,
      "stateMutability": "nonpayable",
      "type": "function"
    },
    {
      "constant": true,
      "inputs": [],
      "name": "initBlockNum",
      "outputs": [
        {
          "name": "",
          "type": "uint256"
        }
      ],
      "payable": false,
      "stateMutability": "view",
      "type": "function"
    },
    {
      "constant": true,
      "inputs": [],
      "name": "_rewardPool",
      "outputs": [
        {
          "name": "",
          "type": "address"
        }
      ],
      "payable": false,
      "stateMutability": "view",
      "type": "function"
    },
    {
      "anonymous": false,
      "inputs": [
        {
          "indexed": true,
          "name": "_miner",
          "type": "address"
        },
        {
          "indexed": false,
          "name": "_amount",
          "type": "uint256"
        },
        {
          "indexed": false,
          "name": "_status",
          "type": "bool"
        }
      ],
      "name": "tokenMinted",
      "type": "event"
    },
    {
      "anonymous": false,
      "inputs": [
        {
          "indexed": true,
          "name": "from",
          "type": "address"
        },
        {
          "indexed": true,
          "name": "to",
          "type": "address"
        },
        {
          "indexed": false,
          "name": "value",
          "type": "uint256"
        }
      ],
      "name": "Transfer",
      "type": "event"
    },
    {
      "anonymous": false,
      "inputs": [
        {
          "indexed": true,
          "name": "owner",
          "type": "address"
        },
        {
          "indexed": true,
          "name": "spender",
          "type": "address"
        },
        {
          "indexed": false,
          "name": "value",
          "type": "uint256"
        }
      ],
      "name": "Approval",
      "type": "event"
    },
    {
      "constant": false,
      "inputs": [],
      "name": "initialize",
      "outputs": [],
      "payable": false,
      "stateMutability": "nonpayable",
      "type": "function"
    },
    {
      "constant": false,
      "inputs": [
        {
          "name": "_to",
          "type": "address"
        }
      ],
      "name": "setReceiver",
      "outputs": [
        {
          "name": "success",
          "type": "bool"
        }
      ],
      "payable": false,
      "stateMutability": "nonpayable",
      "type": "function"
    },
    {
      "constant": false,
      "inputs": [
        {
          "name": "_to",
          "type": "address"
        }
      ],
      "name": "setRewardPool",
      "outputs": [
        {
          "name": "success",
          "type": "bool"
        }
      ],
      "payable": false,
      "stateMutability": "nonpayable",
      "type": "function"
    },
    {
      "constant": false,
      "inputs": [],
      "name": "mintTokens",
      "outputs": [
        {
          "name": "success",
          "type": "bool"
        }
      ],
      "payable": false,
      "stateMutability": "nonpayable",
      "type": "function"
    },
    {
      "constant": false,
      "inputs": [
        {
          "name": "_to",
          "type": "address"
        },
        {
          "name": "_value",
          "type": "uint256"
        }
      ],
      "name": "transfer",
      "outputs": [
        {
          "name": "",
          "type": "bool"
        }
      ],
      "payable": false,
      "stateMutability": "nonpayable",
      "type": "function"
    },
    {
      "constant": false,
      "inputs": [
        {
          "name": "_from",
          "type": "address"
        },
        {
          "name": "_to",
          "type": "address"
        },
        {
          "name": "_value",
          "type": "uint256"
        }
      ],
      "name": "transferFrom",
      "outputs": [
        {
          "name": "",
          "type": "bool"
        }
      ],
      "payable": false,
      "stateMutability": "nonpayable",
      "type": "function"
    },
    {
      "constant": false,
      "inputs": [
        {
          "name": "_spender",
          "type": "address"
        },
        {
          "name": "_value",
          "type": "uint256"
        }
      ],
      "name": "approve",
      "outputs": [
        {
          "name": "",
          "type": "bool"
        }
      ],
      "payable": false,
      "stateMutability": "nonpayable",
      "type": "function"
    },
    {
      "constant": true,
      "inputs": [
        {
          "name": "_owner",
          "type": "address"
        },
        {
          "name": "_spender",
          "type": "address"
        }
      ],
      "name": "allowance",
      "outputs": [
        {
          "name": "",
          "type": "uint256"
        }
      ],
      "payable": false,
      "stateMutability": "view",
      "type": "function"
    }
  ],
  "bytecode": "0x608060405234801561001057600080fd5b50611210806100206000396000f30060806040526004361061013d5763ffffffff7c010000000000000000000000000000000000000000000000000000000060003504166302964ff1811461014257806306fdde0314610173578063095ea7b3146101fd57806318160ddd1461023557806323b872dd1461025c5780632f3b6ad314610286578063313ce5671461029b57806339509351146102c657806342cde4e8146102ea5780636b0c341b146102ff57806370a0823114610314578063718da7ee14610335578063771282f61461035657806378238c371461036b5780637bc90d1c1461038c5780638129fc1c146103a157806395d89b41146103b85780639cf5c3f5146103cd578063a457c2d7146103e2578063a9059cbb14610406578063d18d38001461042a578063dc7ced3d1461043f578063dd62ed3e14610454578063eeb9635c1461047b575b600080fd5b34801561014e57600080fd5b50610157610490565b60408051600160a060020a039092168252519081900360200190f35b34801561017f57600080fd5b5061018861049f565b6040805160208082528351818301528351919283929083019185019080838360005b838110156101c25781810151838201526020016101aa565b50505050905090810190601f1680156101ef5780820380516001836020036101000a031916815260200191505b509250505060405180910390f35b34801561020957600080fd5b50610221600160a060020a036004351660243561052d565b604080519115158252519081900360200190f35b34801561024157600080fd5b5061024a610540565b60408051918252519081900360200190f35b34801561026857600080fd5b50610221600160a060020a0360043581169060243516604435610546565b34801561029257600080fd5b5061024a6105bb565b3480156102a757600080fd5b506102b06105c1565b6040805160ff9092168252519081900360200190f35b3480156102d257600080fd5b50610221600160a060020a03600435166024356105e2565b3480156102f657600080fd5b5061024a610692565b34801561030b57600080fd5b5061024a610698565b34801561032057600080fd5b5061024a600160a060020a036004351661069e565b34801561034157600080fd5b50610221600160a060020a03600435166106b9565b34801561036257600080fd5b5061024a61075b565b34801561037757600080fd5b50610221600160a060020a0360043516610761565b34801561039857600080fd5b5061024a6107f7565b3480156103ad57600080fd5b506103b66107fd565b005b3480156103c457600080fd5b50610188610a26565b3480156103d957600080fd5b5061024a610a81565b3480156103ee57600080fd5b50610221600160a060020a0360043516602435610a87565b34801561041257600080fd5b50610221600160a060020a0360043516602435610ad2565b34801561043657600080fd5b5061024a610b3e565b34801561044b57600080fd5b50610157610b44565b34801561046057600080fd5b5061024a600160a060020a0360043581169060243516610b53565b34801561048757600080fd5b50610221610b5f565b606a54600160a060020a031681565b6068805460408051602060026001851615610100026000190190941693909304601f810184900484028201840190925281815292918301828280156105255780601f106104fa57610100808354040283529160200191610525565b820191906000526020600020905b81548152906001019060200180831161050857829003601f168201915b505050505081565b60006105398383610dc8565b9392505050565b606c5481565b6000600160a060020a03831615156105a8576040805160e560020a62461bcd02815260206004820152601260248201527f546f2061646472657373206973203078302e0000000000000000000000000000604482015290519081900360640190fd5b6105b3848484610e46565b949350505050565b60735481565b606b5474010000000000000000000000000000000000000000900460ff1681565b6000600160a060020a03831615156105f957600080fd5b336000908152603460209081526040808320600160a060020a038716845290915290205461062d908363ffffffff610ee316565b336000818152603460209081526040808320600160a060020a0389168085529083529281902085905580519485525191937f8c5be1e5ebec7d5bd14f71427d1e84f3dd0314c0f7b2291e5b200ac8c7c3b925929081900390910190a350600192915050565b60705481565b606e5481565b600160a060020a031660009081526033602052604090205490565b606a54600090600160a060020a03161561071d576040805160e560020a62461bcd02815260206004820152601d60248201527f5265636569766572206164647265737320616c7265616479207365742e000000604482015290519081900360640190fd5b61072982606d54610f00565b50606a8054600160a060020a03831673ffffffffffffffffffffffffffffffffffffffff199091161790556001919050565b606d5481565b606b54600090600160a060020a0316156107c5576040805160e560020a62461bcd02815260206004820181905260248201527f72657761726420706f6f6c206164647265737320616c7265616479207365742e604482015290519081900360640190fd5b50606b8054600160a060020a03831673ffffffffffffffffffffffffffffffffffffffff199091161790556001919050565b606f5481565b60008054610100900460ff16806108175750610817610fac565b80610825575060005460ff16155b15156108a1576040805160e560020a62461bcd02815260206004820152602e60248201527f436f6e747261637420696e7374616e63652068617320616c726561647920626560448201527f656e20696e697469616c697a6564000000000000000000000000000000000000606482015290519081900360840190fd5b5060008054600161010061ff00198316811760ff1916919091179092556040805180820190915260058082527f546f6b656e00000000000000000000000000000000000000000000000000000060209092019182529290910460ff169161090a91606891611153565b506040805180820190915260038082527f544b4e0000000000000000000000000000000000000000000000000000000000602090920191825261094f91606991611153565b50606a805473ffffffffffffffffffffffffffffffffffffffff19169055606b805474ffffffffffffffffffffffffffffffffffffffffff1916741200000000000000000000000000000000000000001790556b04860d8812f0b38878000000606c8190556109d2906064906109c6906028610fb6565b9063ffffffff610fe416565b606d819055606c546109e99163ffffffff61100716565b606e55601e606f55683635c9adc5dea000006070556000607381905543607181905560725580549115156101000261ff0019909216919091179055565b6069805460408051602060026001851615610100026000190190941693909304601f810184900484028201840190925281815292918301828280156105255780601f106104fa57610100808354040283529160200191610525565b60725481565b6000600160a060020a0383161515610a9e57600080fd5b336000908152603460209081526040808320600160a060020a038716845290915290205461062d908363ffffffff61100716565b6000600160a060020a0383161515610b34576040805160e560020a62461bcd02815260206004820152601260248201527f546f2061646472657373206973203078302e0000000000000000000000000000604482015290519081900360640190fd5b610539838361101e565b60715481565b606b54600160a060020a031681565b60006105398383611034565b6000806000806000606c54606d541415610bb6576040805160008082526020820152815133927f0cd39f0300042a6303002854c150d99b795fe5d72f80cd972f5aa376c7c6d6af928290030190a260009450610dc1565b6071544311610c35576040805160e560020a62461bcd02815260206004820152602160248201527f626c6f636b2e6e756d626572203c20696e69746920626c6f636b206e756d626560448201527f7200000000000000000000000000000000000000000000000000000000000000606482015290519081900360840190fd5b610c50606f546109c66071544361100790919063ffffffff16565b93508360020a9250610c7f610c7084606e54610fe490919063ffffffff16565b606e549063ffffffff61100716565b607354909250821015610cdc576040805160e560020a62461bcd02815260206004820152601760248201527f746f6b656e546f4d696e74206973206e65676174697665000000000000000000604482015290519081900360640190fd5b607354610cf090839063ffffffff61100716565b9050801515610d3c576040805160008082526020820152815133927f0cd39f0300042a6303002854c150d99b795fe5d72f80cd972f5aa376c7c6d6af928290030190a260009450610dc1565b606b54610d5290600160a060020a031682610f00565b43607255607354610d69908263ffffffff610ee316565b607355606d54610d7f908263ffffffff610ee316565b606d556040805182815260016020820152815133927f0cd39f0300042a6303002854c150d99b795fe5d72f80cd972f5aa376c7c6d6af928290030190a2600194505b5050505090565b6000600160a060020a0383161515610ddf57600080fd5b336000818152603460209081526040808320600160a060020a03881680855290835292819020869055805186815290519293927f8c5be1e5ebec7d5bd14f71427d1e84f3dd0314c0f7b2291e5b200ac8c7c3b925929181900390910190a350600192915050565b600160a060020a0383166000908152603460209081526040808320338452909152812054821115610e7657600080fd5b600160a060020a0384166000908152603460209081526040808320338452909152902054610eaa908363ffffffff61100716565b600160a060020a0385166000908152603460209081526040808320338452909152902055610ed984848461105f565b5060019392505050565b600082820183811015610ef557600080fd5b8091505b5092915050565b600160a060020a0382161515610f1557600080fd5b603554610f28908263ffffffff610ee316565b603555600160a060020a038216600090815260336020526040902054610f54908263ffffffff610ee316565b600160a060020a03831660008181526033602090815260408083209490945583518581529351929391927fddf252ad1be2c89b69c2b068fc378daa952ba7f163c4a11628f55a4df523b3ef9281900390910190a35050565b303b8015905b5090565b600080831515610fc95760009150610ef9565b50828202828482811515610fd957fe5b0414610ef557600080fd5b600080808311610ff357600080fd5b8284811515610ffe57fe5b04949350505050565b6000808383111561101757600080fd5b5050900390565b600061102b33848461105f565b50600192915050565b600160a060020a03918216600090815260346020908152604080832093909416825291909152205490565b600160a060020a03831660009081526033602052604090205481111561108457600080fd5b600160a060020a038216151561109957600080fd5b600160a060020a0383166000908152603360205260409020546110c2908263ffffffff61100716565b600160a060020a0380851660009081526033602052604080822093909355908416815220546110f7908263ffffffff610ee316565b600160a060020a0380841660008181526033602090815260409182902094909455805185815290519193928716927fddf252ad1be2c89b69c2b068fc378daa952ba7f163c4a11628f55a4df523b3ef92918290030190a3505050565b828054600181600116156101000203166002900490600052602060002090601f016020900481019282601f1061119457805160ff19168380011785556111c1565b828001600101855582156111c1579182015b828111156111c15782518255916020019190600101906111a6565b50610fb2926111e19250905b80821115610fb257600081556001016111cd565b905600a165627a7a72305820b49157c342a2c1d670da2fcb0ba7a963e83d76f2288570fe70bd4deadbeca3aa0029",
  "source": "pragma solidity 0.4.24;\n\nimport \"zos-lib/contracts/Initializable.sol\";\nimport \"openzeppelin-eth/contracts/token/ERC20/ERC20.sol\";\nimport \"openzeppelin-eth/contracts/ownership/Ownable.sol\";\n\ncontract Token is Initializable, ERC20 {\n\n    using SafeMath for uint256;\n\n    // ============\n    // DATA STRUCTURES:\n    // ============\n    string public name;                             // Set the token name for display\n    string public symbol;                           // Set the token symbol for display\n\n    // initial receiver of tokens\n    address public _receiver;                      // address to receive TOKENS\n    address public _rewardPool;\n\n    // constants\n    uint8 public decimals;                        // Set the number of decimals for display\n    uint256 public totalSupply;                   // OceanToken total supply\n    uint256 public currentSupply;                 // current available tokens\n\n    // network reward parameters\n    uint256 public rewardSupply;                  // token amount for rewards\n    uint256 public halfLife;                      // number of blocks for half-life\n    uint256 public threshold;                     // trigger distribution of rewards if amountReward > threshold\n    uint256 public initBlockNum;\n    uint256 public lastMintBlock;\n    uint256 public amountReward;\n\n    // Events\n    event tokenMinted(address indexed _miner, uint256 _amount, bool _status);\n\n    /**\n    * @dev OceanToken Constructor\n    * Runs only on initial contract creation.\n    */\n    function initialize() initializer public {\n        name = 'Token';\n        symbol = 'TKN';\n        _receiver = address(0);\n        _rewardPool = address(0);\n        decimals = 18;\n        totalSupply = 1400000000 * 10 ** 18;\n        currentSupply = totalSupply.mul(40).div(100);\n        rewardSupply = totalSupply.sub(currentSupply);\n        halfLife = 30;\n        threshold = 1000 * 10 ** 18;\n        amountReward = 0;\n        // log init block number\n        initBlockNum = block.number;\n        // log last mining block\n        lastMintBlock = block.number;\n    }\n\n    /**\n    * @dev setReceiver set the address (OeanMarket) to receive the emitted tokens\n    * @param _to The address to send tokens\n    * @return success setting is successful.\n    */\n    function setReceiver(address _to) public returns (bool success){\n        // make sure receiver is not set already\n        require(_receiver == address(0), 'Receiver address already set.');\n        // Creator address is assigned initial available tokens\n        super._mint(_to, currentSupply);\n        // set receiver\n        _receiver = _to;\n        return true;\n    }\n\n    /**\n    * @dev setRewardPool set the address (OceanReward) to receive the reward tokens\n    * @param _to The address to send tokens\n    * @return success setting is successful.\n    */\n    function setRewardPool(address _to) public returns (bool success){\n        // make sure receiver is not set already\n        require(_rewardPool == address(0), 'reward pool address already set.');\n        // set _rewardPool\n        _rewardPool = _to;\n        return true;\n    }\n\n    /**\n     * @dev emitTokens Ocean tokens according to schedule forumla\n     * @return true if the mining of Ocean tokens is successful.\n     */\n    function mintTokens() public returns (bool success) {\n        // check if all tokens have been minted\n        if (currentSupply == totalSupply){\n            emit tokenMinted(msg.sender, 0, false);\n            return false;\n      }\n\n        require(block.number > initBlockNum, 'block.number < initi block number');\n        uint256 tH = (block.number.sub(initBlockNum)).div( halfLife );   // half-life is 30 blocks: release 50% after 30 blocks (testing!)\n        uint256 base = 2 ** tH;\n        uint256 supply = rewardSupply.sub(rewardSupply.div(base));\n\n        require(supply >= amountReward, 'tokenToMint is negative');\n        uint256 tokenToMint = supply.sub(amountReward);\n        if (tokenToMint == 0) {\n            emit tokenMinted(msg.sender, 0, false);\n            return false;\n        }\n\n        // mint new tokens and deposit in OceanReward contract\n        super._mint(_rewardPool, tokenToMint);\n        // log the block number\n        lastMintBlock = block.number;\n        // update current token reward amount\n        amountReward = amountReward.add(tokenToMint);\n        // update current token supply\n        currentSupply = currentSupply.add(tokenToMint);\n        emit tokenMinted(msg.sender, tokenToMint, true);\n        return true;\n    }\n\n    /**\n    * @dev Transfer token for a specified address when not paused\n    * @param _to The address to transfer to.\n    * @param _value The amount to be transferred.\n    */\n    function transfer(address _to, uint256 _value) public returns (bool) {\n        require(_to != address(0), 'To address is 0x0.');\n        return super.transfer(_to, _value);\n    }\n\n    /**\n    * @dev Transfer tokens from one address to another when not paused\n    * @param _from address The address which you want to send tokens from\n    * @param _to address The address which you want to transfer to\n    * @param _value uint256 the amount of tokens to be transferred\n    */\n    function transferFrom(address _from, address _to, uint256 _value) public returns (bool) {\n        require(_to != address(0), 'To address is 0x0.');\n        return super.transferFrom(_from, _to, _value);\n    }\n\n    /**\n    * @dev Aprove the passed address to spend the specified amount of tokens on behalf of msg.sender when not paused.\n    * @param _spender The address which will spend the funds.\n    * @param _value The amount of tokens to be spent.\n    */\n    function approve(address _spender, uint256 _value) public returns (bool) {\n        return super.approve(_spender, _value);\n    }\n\n    /**\n    * @dev Gets the allowance amount of the specified address.\n    * @param _owner The address to query the the allowance of.\n    * @return An uint256 representing the amount allowance of the passed address.\n    */\n    function allowance(address _owner, address _spender) public view returns (uint256) {\n        return super.allowance(_owner, _spender);\n    }\n\n}\n\n",
  "sourcePath": "/home/parallels/zos_exp/contracts/token.sol",
  "compiler": {
    "name": "solc",
    "version": "0.4.24+commit.e67f0147.Emscripten.clang"
  },
  "schemaVersion": "2.0.1",
  "updatedAt": "2018-12-21T22:26:20.069Z"
}